:1000000000308A001B280000213084008313000880
:10001000031918280130F800F701F70B0D28F80B29
:100020000C284A30F700F70B13281628800B0A28F3
:100030008A110A125B2803081F39830083160317ED
:100040000908C039890003131F129F1200300317DB
:10005000880083128701880189018313FF3083168A
:10006000031385000030880003170908C039890090
:1000700003131F129F120130031788000030F8008D
:10008000831203131F08C33978049F001F139F179F
:1000900083169F1383121F14031787018801890198
:1000A00003139F149F1852281E08A00020088800E0
:0A00B0006430A10004285128630009
:04400E00E12FFF3F60
:00000001FF
;PIC16F887
;CRC=836B  CREATED="22-nov.-17 01:11"
