:1000000001308A0054290000D237F4306E326F106C
:10001000ED32EE3961356500653720264322A018A0
:10002000363C32000C004D3943347537E335F53238
:10003000E51021000C002730840083130008031909
:100040002F280130F800F701F70B2428F80B23289C
:100050004A30F700F70B2A282D28800B21280800AA
:100060002D0EF039F7000F300805770488000000E6
:1000700008143A28081008000808F700080E0F397D
:10008000F8000800831608108810081183128810E1
:100090000F3083160805F038880083120815000019
:1000A000081400003C207808AD0008100000081477
:1000B00000003C207808AC0008100F3083160805BB
:1000C000880083122D0EF700F030F70577082C0416
:1000D000F8007808AC00AC1B48282A1C88102A18A5
:1000E000881400000811000008102B0EAC000F301F
:1000F000AC052C08AD0030202B080F39AC00AD004A
:10010000302008002830A3000C30A4000130A500E6
:100110000630A6000810881008110F308316080555
:1001200088000810881008110F308312A7001B20C8
:100130000130A2002208033C031CA6280330AD00B6
:1001400030200530A7001B20A20A9A280230AD00FB
:1001500030200530A7001B20A2012208033C031C0D
:10016000BD2823302207840083130008A700AA01BA
:100170002708AB004220A20AAD288A110A126D2975
:10018000270BC328C6284030A800C728A801013083
:100190002602A80728088038A900AA012908AB0070
:1001A000422008002508073A0319E0280B3A0319F2
:1001B000E528063A0319ED28023A0319F328F8282E
:1001C0000130A600A700C020FD28AA010130AB0025
:1001D00042200230A7001B20FD280130A60002307B
:1001E000A700C020FD28AA011030AB004220FD2846
:1001F0000130AA002508AB00422008000B08A2002D
:100200008B13831603178C170C1400000000831245
:100210000313A21B8B1703170C087F3903195229EC
:100220000313A20003170D080313A30003170F08FD
:100230000313A4002208A500D220230803178D0071
:100240000313240803178F0003130B08A5008B1357
:10025000831603178C170C1400000000831203137D
:10026000A51B8B1703170C0D0E0D7F39031952298F
:100270000313A20003170D080313A30003170F08AD
:100280000313A4002208A500D220230803178D0021
:100290000313240803178F008D0A03198F0A031311
:1002A000FE2803170313080003081F398300613079
:1002B00083168F0090010F0803170908C0398900C1
:1002C00003131F129F120030031788008312870147
:1002D000880189018313031382280130A600A70037
:1002E000C020043003178D0000308F000313FE2060
:1002F0000130A6000230A700C0200C3003178D008B
:1003000000308F000313FE200430A200FA30A70053
:100310001B20A20B8629123003178D0000308F009E
:100320000313FE200130A0002008023C031CBC295E
:100330000130A1002108103C031CBA292108A600A5
:100340002008A700C020133003178D0000308F0055
:100350000313FE200230A2009630A7001B20A20B40
:10036000AC291A3003178D0000308F000313FE20D4
:0C037000A10A9A29A00A9429922963008E
:04400E00F42FFF3F4D
:00000001FF
;PIC16F887
;CRC=6390  CREATED="26-nov.-17 00:39"
