:1000000004308A00AD2C0000412243102B10CC217B
:10001000C418363C3210761900004D394334753718
:10002000E335F532E51021000C000C006E31693A21
:1000300073104122431DA01234267500D6376C3A46
:1000400073104122431DA012311732330017343090
:1000500084008313000803193B280130F800F701DE
:10006000F70B3028F80B2F284A30F700F70B36280B
:100070003928800B2D2808003B0EF039F7000F308F
:1000800008057704880000000814462808100800B6
:100090000808F700080E0F39F8000800831608104A
:1000A00088100811831288100F3083160805F03865
:1000B0008800831208150000081400004820780802
:1000C000BB00081000000814000048207808BA009F
:1000D00008100F3083160805880083123B0EF700C6
:1000E000F030F70577083A04F8007808BA00BA1B30
:1000F0005428381C88103818881400000811000093
:100100000810390EBA000F30BA053A08BB003C207F
:1001100039080F39BA00BB003C2008002830A7007E
:100120000C30A8000130A9000630AA000810881081
:1001300008110F3083160805880008108810081170
:100140000F308312B40027200130A6002608033C9C
:10015000031CB2280330BB003C200530B40027202C
:10016000A60AA6280230BB003C200530B400272098
:10017000A6012608033C031CC92827302607840053
:1001800083130008AB00B8012B08B9004E20A60A63
:10019000B9288A110A12E62C350BCF28D228403014
:1001A000B600D328B60101303402B60736088038CD
:1001B000B700B8013708B9004E2008003308073AE5
:1001C0000319EC280B3A0319F128063A0319F92808
:1001D000023A0319FF2804290130B400B500CC20ED
:1001E0000929B8010130B9004E200230B40027209F
:1001F00009290130B4000230B500CC200929B8012A
:100200001030B9004E2009290130B8003308B90078
:100210004E2008000B08A6008B13831603178C17BB
:100220000C140000000083120313A61B8B17031786
:100230000C087F3903195E290313A60003170D0864
:100240000313A70003170F080313A8002608B30021
:10025000DE20270803178D000313280803178F00DB
:1002600003130B08A9008B13831603178C170C14A8
:100270000000000083120313A91B8B1703170C0D3A
:100280000E0D7F3903195E290313A60003170D080D
:100290000313A70003170F080313A8002608B300D1
:1002A000DE20270803178D000313280803178F008B
:1002B0008D0A03198F0A03130A2903170313080071
:1002C0008E30F7002708F8002608F900FA01F80830
:1002D000031D74297908F800F9010830F702F808BD
:1002E000031D7429F7017C290310F81B7B29F90DE4
:1002F000F80DF7037429F8138A110A12192D33081F
:100300000319EF29BB0037080319EF29BB070318AE
:1003100090297F30BB02031CEF290319EF29942990
:100320008130BB070318EF293B08F700F801F901FA
:10033000FA013408BF00BF173508BE003608BD00FB
:100340001830BB00BC013D1CBD293A08FA07031C4C
:10035000AF29F90A031DAF29F80A0319BC17390898
:10036000F907031CB629F80A0319BC173808B500A9
:10037000B5173508F8070318BC17BC0DF80CF90CB5
:10038000FA0CBF0CBE0CBD0C0310BB0BA229013034
:10039000F7070318EF29F81BD429BF0DFA0DF90D43
:1003A000F80DF7030319EF29BF1FE529FA0A031D0A
:1003B000E529F90A031DE529F80A031DE529F80CCA
:1003C000F90CFA0CF70A0319EF293408BC003808B5
:1003D000BC06BC1FED29F817F329F813F329F70120
:1003E000F801F901FA0108002A080319B92AB60030
:1003F0002E080319B92AB602031C032A7F30B60758
:100400000318B92A092A8130B602031CB92A031934
:10041000B92A3608F700F801F901FA01B5012B08ED
:10042000B400B4172C08B3002D08B2001930B60080
:100430003108B20203182C2A0130B30203182C2A07
:10044000B40203182C2AB50203182C2AB50AB40AE0
:10045000B30A3108B2075E2A3008B3020318472AEC
:100460000130B4020318472AB5020318472AB50A17
:10047000B40A3008B3073108B207031C5E2AB30A76
:10048000031D5E2AB40A031D5E2AB50A5E2A2F08E0
:100490008038B40203185D2A0130B50203185D2AC2
:1004A000B50A2F088038B4073008B307031C3B2A6D
:1004B000B40A031D3B2AB50A3B2A7A14B60B612AFB
:1004C0006C2A0310B20DB30DB40DB50D0310FA0D67
:1004D000F90DF80DB70D182A371C742A0310F80C03
:1004E000F90CFA0CB70C772AF7030319B92AB71BD2
:1004F000A02A0310B20DB30DB40DB50D3108B20230
:1005000003188C2A0130B30203188C2AB402031892
:100510008C2AB502031CAF2A3008B3020318972AAD
:100520000130B4020318972AB502031CAF2A2F0822
:100530008038B4020318A02A0130B502031CAF2A88
:10054000FA0A031DAF2AF90A031DAF2AF80A031D90
:10055000AF2AF70A0319B92AF80CF90CFA0C2B0880
:10056000B6002F08B606B61FB72AF817BD2AF8132B
:10057000BD2AF701F801F901FA018A110A123E2D8C
:100580000B08A7008B13831603178C170C1400009D
:10059000000083120313A71B8B170318F72A0317F6
:1005A0000C087F390313A70003170D080313A800D5
:1005B00003170F080313A9002708B300DE2028083B
:1005C00003178D000313290803178F0003130B086B
:1005D000AA008B13831603178C170C14000000005D
:1005E00083120313AA1B8B17A60BF72A162B0317CC
:1005F0000C0D0E0D7F390313A70003170D0803130D
:10060000A80003170F080313A9002708B300DE2072
:10061000280803178D000313290803178F008D0A7C
:1006200003198F0A03100313A60BC02A0800AE019A
:100630000408AD002E10831B2E14270EF038A900DD
:10064000A907E23EAA00323EAC0027080F39AA07EC
:10065000AA07AC07E93EAB00AB07AB07260E0F3984
:10066000AB07AC07AB0DAC0DAC09AC0D26080F39D0
:10067000AC07A90D0730A8000A30AC07AB03031C78
:100680003D2BAB07AA03031C412BAA07A903031C9C
:10069000452BA907A803031C492B2830840083138A
:1006A00007302D052D1384072C30040203192D1754
:1006B0000008F700031D642B2D1B642B2D1A762BCD
:1006C000AD19642B2030672BAD152D123030F70794
:1006D000A7010408A6002710831B27147708B3007E
:1006E000DE2026088400831327188317840A2D1F11
:1006F000542B8A110A12622D8318812B3B308400FF
:100700008313F701F801F901FA01BB01BC01BD0136
:10071000BE013A083904380437040319BF2B2030CE
:10072000BF000310B30DB40DB50DB60DBB0DBC0D60
:10073000BD0DBE0D3A083E02031DA82B39083D022F
:10074000031DA82B38083C02031DA82B37083B02C9
:10075000031CB92B3708BB023808031C380FBC0236
:100760003908031C390FBD023A08031C3A0FBE02B8
:100770000314F70DF80DF90DFA0DBF0B912B3B0883
:100780008000840A3C088000840A3D088000840AB6
:100790003E08800008000408AB002A08AD000319D9
:1007A000EA2B2908B6002808B5002708B400260857
:1007B000B300BA01B9012030B8008230B7007F2100
:1007C0007A08A9007908A8007808A7007708A60089
:1007D000AD0BD12B2908B6002808B5002708B400B6
:1007E0002608B3003308B63CB300FA013408B7005A
:1007F000B4170310B40CB50CB60CFA0CF90CF80CC9
:10080000F70CB30BF92BB71F102CF709F809F909EE
:10081000FA09F70A0319F80A0319F90A0319FA0A77
:100820007A08A9007908A8007808A7007708A60028
:10083000A91F272CAB03AB16A609A709A809A9096C
:10084000A60A0319A70A0319A80A0319A90A3B3023
:10085000B2009A30B100CA30B000AF010A30AD002A
:100860002A080319AB0A831426308400831329084D
:10087000B6002808B5002708B4002608B3003208DF
:10088000BA003108B9003008B8002F08B7007C233F
:100890007808F708031D5F2C2A0A2D0203195F2C24
:1008A0002B080319612C0F392D020319592C031839
:1008B000912CAB1B912C2B1B612C20308D2C2030CC
:1008C000AB05AB1E6F2CAB122A08031DAB037708D8
:1008D000AB002D30B300DE202B08F700AB012A0857
:1008E0002D02031D7D2C7708AB002E30B300DE20D7
:1008F0002B08F7002030AB0500303030AB1E8D2CBC
:10090000AB122A08031DAB037708AB002D30B300F0
:10091000DE202B08F700AB013030F7077708B30073
:10092000DE2083103208B6003108B5003008B4006C
:100930002F08B300BA01B901B8010A30B7007C230F
:100940007A08B2007908B1007808B0007708AF00E3
:10095000AD0B332C8A110A127E2D03081F39830038
:10096000613083168F0090010F0803170908C03902
:10097000890003131F129F1200300317880083128F
:100980008701880189018313FF30831603138500D3
:1009900003170908C039890003131F129F12013081
:1009A000031788000030F800831203131F08C339AF
:1009B00078049F001F139F1783169F1783121F141D
:1009C000031787018801890103138E280130B400C1
:1009D000B500CC20043003178D0000308F000313C6
:1009E0000A210130B4000230B500CC200D300317CD
:1009F0008D0000308F0003130A210430A600FA3066
:100A0000B4002720A60BFF2C143003178D000030F4
:100A10008F0003130A219F149F180C2D83161E08A4
:100A20008312A0001E08A1002108A7002008A6002C
:100A30006029B601B5012030B4008130B3007A08D6
:100A4000BA007908B9007808B8007708B7007F21A4
:100A50007A08A9007908A8007808A7007708A600F6
:100A60007A08AD007908AC007808AB007708AA00D6
:100A7000B101B001AF018930AE00F4297A08A500B8
:100A80007908A4007808A3007708A200153003179E
:100A90008D0000308F0003130A210130B400B5002F
:100AA000CC20163003178D0000308F0003100B3060
:100AB0000313A600C022013084002108A7002008EB
:100AC000A600172B0130B4000230B500CC201E3038
:100AD00003178D0000308F0003100B300313A600A6
:100AE000C022893084002508A9002408A800230812
:100AF000A7002208A6000230AA00CB2B0430A600D3
:0E0B0000FA30B4002720A60B802D0B2D6300C9
:04400E00F42FFF3F4D
:00000001FF
;PIC16F887
;CRC=1205  CREATED="27-nov.-17 00:28"
