:1000000000308A002128000000308316850083120A
:1000100085018A110A1236282230840083130008D1
:10002000031920280130F800F701F70B1528F80B09
:1000300014284A30F700F70B1B281E28800B1228C3
:10004000080003081F398300831603170908C03905
:10005000890003131F129F120030031788008312B8
:100060008701880189018313031304280530850063
:100070000430A100FA30A2000C20A10B3A28023073
:1000800085000430A100FA30A2000C20A10B432807
:0400900036286300AB
:04400E00E12FFF3F60
:00000001FF
;PIC16F887
;CRC=8D29  CREATED="30-oct.-17 23:32"
