:1000000000308A0026280000831681130614003071
:1000100085008800831285018801A0018A110A12D7
:100020003B28213084008313000803192528013060
:10003000F800F701F70B1A28F80B19284A30F700D7
:10004000F70B20282328800B1728080003081F39E6
:100050008300831603170908C039890003131F1290
:100060009F120030031788008312870188018901DD
:1000700083130313042883160614831206185528C5
:10008000FF30A006A0080319492805140130880094
:100090004B2805108801831606148312061C4B2872
:1000A0001030F700F70B52280000A00803196B2846
:1000B0000808803C031962280310880D3230A10023
:1000C00011205828080B65286B280310880C323043
:0A00D000A100112062283B28630004
:04400E00E12FFF3F60
:00000001FF
;PIC16F887
;CRC=C481  CREATED="07-nov.-17 01:00"
