:1000000003308A00792B0000D332EE396F39203269
:100010006500F4326D386539613A75396110CC2666
:10002000B31A00010C000C002010D4326D38653971
:10003000613A7539611D000120102010A5182E1994
:1000400066104300343084008313000803193628F7
:100050000130F800F701F70B2B28F80B2A284A305B
:10006000F700F70B31283428800B282808003B0EB6
:10007000F039F7000F3008057704880000000814F5
:100080004128081008000808F700080E0F39F8008A
:1000900008008316081088100811831288100F308A
:1000A00083160805F038880083120815000008142C
:1000B000000043207808BB0008100000081400006E
:1000C00043207808BA0008100F308316080588000E
:1000D00083123B0EF700F030F70577083A04F8007A
:1000E0007808BA00BA1B4F28381C881038188814B2
:1000F0000000081100000810390EBA000F30BA05D0
:100100003A08BB00372039080F39BA00BB00372046
:1001100008002830A7000C30A8000130A9000630E4
:10012000AA000810881008110F30831608058800EF
:100130000810881008110F308312B40022200130FB
:10014000A6002608033C031CAD280330BB00372063
:100150000530B4002220A60AA1280230BB003720B7
:100160000530B4002220A6012608033C031CC42845
:1001700027302607840083130008AB00B8012B0842
:10018000B9004920A60AB4288A110A12B22B350BED
:10019000CA28CD284030B600CE28B601013034023E
:1001A000B60736088038B700B8013708B9004920CB
:1001B00008003308073A0319E7280B3A0319EC281B
:1001C000063A0319F428023A0319FA28FF280130E5
:1001D000B400B500C7200429B8010130B900492096
:1001E0000230B400222004290130B4000230B500EE
:1001F000C7200429B8011030B90049200429013072
:10020000B8003308B900492008000B08A6008B137A
:10021000831603178C170C140000000083120313BD
:10022000A61B8B1703170C087F39031959290313D1
:10023000A60003170D080313A70003170F080313E5
:10024000A8002608B300D920270803178D00031340
:10025000280803178F0003130B08A9008B138316BC
:1002600003178C170C140000000083120313A91B42
:100270008B1703170C0D0E0D7F3903195929031322
:10028000A60003170D080313A70003170F08031395
:10029000A8002608B300D920270803178D000313F0
:1002A000280803178F008D0A03198F0A03130529E5
:1002B0000317031308008E30F7002708F8002608FC
:1002C000F900FA01F808031D6F297908F800F9010F
:1002D0000830F702F808031D6F29F701772903108A
:1002E000F81B7629F90DF80DF7036F29F8138A1119
:1002F0000A12E52B33080319EA29BB003708031952
:10030000EA29BB0703188B297F30BB02031CEA29AB
:100310000319EA298F298130BB070318EA293B0812
:10032000F700F801F901FA013408BF00BF173508DA
:10033000BE003608BD001830BB00BC013D1CB8290A
:100340003A08FA07031CAA29F90A031DAA29F80A80
:100350000319BC173908F907031CB129F80A031956
:10036000BC173808B500B5173508F8070318BC17CF
:10037000BC0DF80CF90CFA0CBF0CBE0CBD0C031034
:10038000BB0B9D290130F7070318EA29F81BCF2979
:10039000BF0DFA0DF90DF80DF7030319EA29BF1F78
:1003A000E029FA0A031DE029F90A031DE029F80AE9
:1003B000031DE029F80CF90CFA0CF70A0319EA29D5
:1003C0003408BC003808BC06BC1FE829F817EE2921
:1003D000F813EE29F701F801F901FA0108000B08FA
:1003E000A7008B13831603178C170C140000000052
:1003F00083120313A71B8B170318262A03170C0855
:100400007F390313A70003170D080313A800031770
:100410000F080313A9002708B300D92028080317E1
:100420008D000313290803178F0003130B08AA007C
:100430008B13831603178C170C1400000000831213
:100440000313AA1B8B17A60B262A452A03170C0D8C
:100450000E0D7F390313A70003170D080313A8001F
:1004600003170F080313A9002708B300D920280891
:1004700003178D000313290803178F008D0A031932
:100480008F0A03100313A60BEF298A110A121D2CE1
:1004900083184D2A3B3084008313F701F801F901DA
:1004A000FA01BB01BC01BD01BE013A0839043804A0
:1004B000370403198B2A2030BF000310B30DB40D8D
:1004C000B50DB60DBB0DBC0DBD0DBE0D3A083E02FF
:1004D000031D742A39083D02031D742A38083C02A2
:1004E000031D742A37083B02031C852A3708BB0208
:1004F0003808031C380FBC023908031C390FBD0231
:100500003A08031C3A0FBE020314F70DF80DF90D5B
:10051000FA0DBF0B5D2A3B088000840A3C0880006E
:10052000840A3D088000840A3E0880000800040810
:10053000AB002A08AD000319B62A2908B60028081E
:10054000B5002708B4002608B300BA01B90120306D
:10055000B8008230B7007A217A08A9007908A8008B
:100560007808A7007708A600AD0B9D2A2908B600D9
:100570002808B5002708B4002608B3003308B63CA5
:10058000B300FA013408B700B4170310B40CB50C6B
:10059000B60CFA0CF90CF80CF70CB30BC52AB71F04
:1005A000DC2AF709F809F909FA09F70A0319F80A20
:1005B0000319F90A0319FA0A7A08A9007908A800A8
:1005C0007808A7007708A600A91FF32AAB03AB168B
:1005D000A609A709A809A909A60A0319A70A0319C0
:1005E000A80A0319A90A3B30B2009A30B100CA30F8
:1005F000B000AF010A30AD002A080319AB0A83141A
:100600002630840083132908B6002808B50027087F
:10061000B4002608B3003208BA003108B900300827
:10062000B8002F08B70048227808F708031D2B2BC5
:100630002A0A2D0203192B2B2B0803192D2B0F39F6
:100640002D020319252B03185D2BAB1B5D2B2B1BD8
:100650002D2B2030592B2030AB05AB1E3B2BAB1282
:100660002A08031DAB037708AB002D30B300D92057
:100670002B08F700AB012A082D02031D492B770830
:10068000AB002E30B300D9202B08F7002030AB058B
:1006900000303030AB1E592BAB122A08031DAB03C0
:1006A0007708AB002D30B300D9202B08F700AB0141
:1006B0003030F7077708B300D92083103208B6002E
:1006C0003108B5003008B4002F08B300BA01B901F1
:1006D000B8010A30B70048227A08B2007908B100A0
:1006E0007808B0007708AF00AD0BFF2A8A110A1214
:1006F0002A2C03081F398300613083168F00900174
:100700000F0803170908C039890003131F129F122D
:100710000030031788008312870188018901831341
:10072000FF3083160313850003170908C0398900B9
:1007300003131F129F120130031788000030F800C6
:10074000831203131F08C33978049F001F139F17D8
:1007500083169F1783121F140317870188018901CD
:10076000031389280130B400B500C72004300317F3
:100770008D0000308F00031305210130B4000230DA
:10078000B500C720093003178D0000308F00031318
:1007900005210430A600FA30B4002220A60BCB2B92
:1007A000123003178D0000308F00031305219F14B2
:1007B0009F18D82B83161E088312A0001E08A100C4
:1007C0002108A7002008A6005B297A08B60079084E
:1007D000B5007808B4007708B300BA01B9017A30DF
:1007E000B8007D30B7007A217A08A5007908A40006
:1007F0007808A3007708A200133003178D0000309B
:100800008F00031305210130B400B500C720143058
:1008100003178D0000308F00031305210130B40051
:100820000230B500C7201C3003178D0000308F0048
:10083000031004300313A600EF2989308400250833
:10084000A9002408A8002308A7002208A600023057
:10085000AA00972A2030B300D9204330B300D92012
:100860000430A600FA30B4002220A60B322CD72B7D
:02087000630023
:04400E00F42FFF3F4D
:00000001FF
;PIC16F887
;CRC=0282  CREATED="02-dic.-17 21:24"
