:020000003F2897
:0E0006008312031329088A00280882000800CC
:0E001400073083120313FD00FD0B0E280800B9
:10002200C330831203139F05C0309F002A08F000DB
:10003200F00D7010F00D701070089F0483169F175A
:1000420083121F140A209F149F1C292800002528B0
:100052001F101E08F100F00183161E08F004003084
:04006200F10408009D
:1000660003208A110A128000840AA80A0319A90A21
:08007600F003031D332808000C
:10007E0004308316031788008901031308108810B3
:10008E0002308312AA00112070088312A00071089A
:10009E00A100A201A301A401A501A601A701803020
:1000AE00F000803027067002031D67282608003CEA
:1000BE00031D67282508033C031D67282408FE3C02
:1000CE00031C9A2880302706F00080302306700229
:1000DE00031D7B2822082602031D7B2821082502EA
:1000EE00031D7B2820082402031C8028081088107A
:1000FE008228081488142408F0002508F100260828
:10010E00F2002708F300F00A0319F10A0319F20AA4
:10011E000319F30A7008A4007108A5007208A6005E
:0A012E007308A700562847289B28F5
:04400E00242800075B
:00000001FF
