:1000000000308A00272800000A108A100A1182078F
:100010003F3406345B344F3466346D347D340734FA
:100020007F346F342330840083130008031926289B
:100030000130F800F701F70B1B28F80B1A284A309B
:10004000F700F70B21282428800B18280800030844
:100050001F398300831603170908C0398900031369
:100060001F129F1200300317880083128701880136
:10007000890183130313A101A201003083168800B4
:10008000091089100911891183128801A20122081F
:10009000093C031C6C28A1012108093C031C6A28A7
:1000A0000130890021080420A30088003230A30019
:1000B0001220A208031D5F28033089006128023046
:1000C000890022080420A30088003230A3001220F7
:0C00D000A10A4C28A20A47284628630019
:04400E00F12FFF3F50
:00000001FF
;PIC16F887
;CRC=DEE8  CREATED="25-nov.-17 01:15"
