:1000000002308A00142A0000412243102B10CC2118
:10001000C418363C32004D3943347537E335F53278
:10002000E51021000C000C00D630EC377210412294
:10003000431D0A10251ACC3A00002C30840083138B
:100040000008031931280130F800F701F70B2628C2
:10005000F80B25284A30F700F70B2C282F28800BA7
:1000600023280800330EF039F7000F300805770415
:100070008800000008143C28081008000808F70051
:10008000080E0F39F80008008316081088100811B0
:10009000831288100F3083160805F0388800831209
:1000A00008150000081400003E207808B30008106E
:1000B0000000081400003E207808B20008100F303D
:1000C0008316080588008312330EF700F030F70519
:1000D00077083204F8007808B200B21B4A28301CB6
:1000E0008810301888140000081100000810310E24
:1000F000B2000F30B2053208B300322031080F3998
:10010000B200B300322008002830A3000C30A40055
:100110000130A5000630A6000810881008110F3025
:100120008316080588000810881008110F30831204
:10013000AC001D200130A2002208033C031CA828AB
:100140000330B30032200530AC001D20A20A9C28E9
:100150000230B30032200530AC001D20A20122087D
:10016000033C031CBF2823302207840083130008AC
:10017000A700B0012708B1004420A20AAF288A11C5
:100180000A124D2A2D0BC528C8284030AE00C928B8
:10019000AE0101302C02AE072E088038AF00B0014E
:1001A0002F08B100442008002B08073A0319E22861
:1001B0000B3A0319E728063A0319EF28023A031904
:1001C000F528FA280130AC00AD00C220FF28B001AC
:1001D0000130B10044200230AC001D20FF28013066
:1001E000AC000230AD00C220FF28B0011030B100D9
:1001F0004420FF280130B0002B08B1004420080043
:100200000B08A2008B13831603178C170C14000025
:10021000000083120313A21B8B1703170C087F39EE
:10022000031954290313A20003170D080313A30095
:1002300003170F080313A4002208AB00D4202308DF
:1002400003178D000313240803178F0003130B08F3
:10025000A5008B13831603178C170C1400000000E5
:1002600083120313A51B8B1703170C0D0E0D7F397B
:10027000031954290313A20003170D080313A30045
:1002800003170F080313A4002208AB00D42023088F
:1002900003178D000313240803178F008D0A031919
:1002A0008F0A031300290317031308000B08A30088
:1002B0008B13831603178C170C1400000000831295
:1002C0000313A31B8B1703188D2903170C087F3901
:1002D0000313A30003170D080313A40003170F084B
:1002E0000313A5002308AB00D420240803178D00B6
:1002F0000313250803178F0003130B08A6008B13A5
:10030000831603178C170C140000000083120313CC
:10031000A61B8B17A20B8D29AC2903170C0D0E0DF4
:100320007F390313A30003170D080313A400031759
:100330000F080313A5002308AB00D42024080317DB
:100340008D000313250803178F008D0A03198F0AE8
:1003500003100313A20B56298A110A128C2AAA0130
:100360000408A9002A10831B2A14230EF038A500C4
:10037000A507E23EA600323EA80023080F39A607D3
:10038000A607A807E93EA700A707A707220E0F396F
:10039000A707A807A70DA80DA809A80D22080F39BF
:1003A000A807A50D0730A4000A30A807A703031C5F
:1003B000D529A707A603031CD929A607A503031C53
:1003C000DD29A507A403031CE1292430840083133D
:1003D0000730290529138407283004020319291737
:1003E0000008F700031DFC29291BFC29291A0E2AE5
:1003F000A919FC292030FF29A91529123030F70747
:10040000A3010408A2002310831B23147708AB0068
:10041000D42022088400831323188317840A291FF9
:10042000EC298A110A12932A03081F3983006130CC
:1004300083168F0090010F0803170908C03989003F
:1004400003131F129F1200300317880083128701C5
:10045000880189018313FF30831603138500031776
:100460000908C039890003131F129F1201300317B6
:1004700088000030F800831203131F08C339780482
:100480009F001F139F1783169F1783121F140317B4
:10049000870188018901031384280130AC00AD0075
:1004A000C220043003178D0000308F000313002199
:1004B0000130AC000230AD00C2200B3003178D00BC
:1004C00000308F00031300210430A200FA30AC008A
:1004D0001D20A20B662A123003178D0000308F00FA
:1004E000031300219F149F18732A83161E0883127A
:1004F000A0001E08A100133003178D0000308F00EC
:1005000003130021143003178D0000308F000310F7
:100510000C300313A2005629013084002108A300E7
:100520002008A200AF290430A200FA30AC001D2040
:08053000A20B952A722A630058
:04400E00F42FFF3F4D
:00000001FF
;PIC16F887
;CRC=8B48  CREATED="26-nov.-17 01:44"
