:1000000000308A003E280000013083168500003051
:100010008700831285018701831603170908C039F9
:10002000890003131F129F1201300317880000304C
:10003000F800831203131F08C33978049F001F13AD
:100040009F1783169F1383121F14031787018801BC
:100050008901031307110C30970083169B019C0143
:1000600001309D000030F800063883129200FF3006
:100070008316920083128A110A12572803081F3927
:100080008300613083168F0090010F080317090861
:10009000C039890003131F129F1200300317880014
:1000A00083128701880189018313031304289F1495
:1000B0009F1858281E08A0002008950057286300A4
:04400E00F42FFF3F4D
:00000001FF
;PIC16F887
;CRC=03CF  CREATED="04-dic.-17 00:21"
