:1000000002308A007C2A0000C3376E3AF2376C1047
:10001000E432A0366F3A6F390A102010D020501009
:100020002B10CC2144000C00D332EC32E331E93701
:10003000EE302029413CA03C20052010F03AEC395C
:1000400065104527D42252004137E73AEC37BD1CF2
:1000500030102010201020100A1020102010201026
:10006000201020102010201020004C36E5336F1097
:10007000611039182010201020100A1020102010B4
:10008000201020102010201020102000D2326739BC
:10009000E5396510E432A01C301020100A10201041
:1000A00020102010201020102010201020000C0004
:1000B000D332EC32E331E937EE302029413CA03C29
:1000C00020052010F03AEC3965104527D422520063
:1000D0004137E73AEC37BD183818201020102010AF
:1000E000200520102010201020102010201020109B
:1000F000201000014C36E5336F106110311C3010B8
:10010000201020102005201020102010201020107A
:100110002010201020100001D2326739E539651017
:10012000E432A018381820102005201020102010CC
:100130002010201020102010201000010C00D332BD
:10014000EC32E331E937EE302029413CA03C200578
:100150002010F03AEC3965104527D422520041377F
:10016000E73AEC37BD163918201020102010200572
:1001700020102010201020102010201020102010FF
:1001800000014C36E5336F106110AD1C30102010AB
:1001900020102005201020102010201020102010EA
:1001A000201020100001D2326739E5396510E432A1
:1001B000A016391820102005201020102010201023
:1001C000201020102010201000010C00D332EC323F
:1001D000E331E937EE302029413CA03C20052010D6
:1001E000F03AEC3965104527D42252000C00D33286
:1001F000EC32E331E937EE30A03AEE3020108A37A6
:10020000F031E9376E10F630EC34E43020100000A5
:10021000303084008313000803191C290130F800D2
:10022000F701F70B1129F80B10294A30F700F70BEB
:1002300017291A29800B0E290800360EF039F7000D
:100240000F300805770488000000081427290810DB
:1002500008000808F700080E0F39F8000800831698
:10026000081088100811831288100F3083160805B3
:10027000F0388800831208150000081400002921B6
:100280007808B6000810000008140000292178083A
:10029000B50008100F308316080588008312360E4B
:1002A000F700F030F70577083504F8007808B50056
:1002B000B51B3529331C8810331888140000081129
:1002C00000000810340EB5000F30B5053508B60033
:1002D0001D2134080F39B500B6001D210800073074
:1002E0008316850000308600013088002830831294
:1002F000AC000C30AD000130AE000630AF0008108D
:10030000881008110F30831608058800081088101F
:1003100008110F308312B00008210130AB002B0808
:10032000033C031C9B290330B6001D210530B0009F
:100330000821AB0A8F290230B6001D210530B0001C
:100340000821AB012B08033C031CB2292C302B07DE
:10035000840083130008B000B3013008B4002F21DB
:10036000AB0AA2298601850107108A110A12A42A64
:10037000300BBB29BE294030B100BF29B10101308B
:100380002F02B10731088038B200B3013208B4003F
:100390002F2108002E08073A0319D8290B3A031910
:1003A000DD29063A0319E529023A0319EB29F02958
:1003B0000130AF00B000B821F529B3010130B4001D
:1003C0002F210230B0000821F5290130AF000230A2
:1003D000B000B821F529B3011030B4002F21F52960
:1003E0000130B3002E08B4002F2108000B08AB0029
:1003F0008B13831603178C170C1400000000831254
:100400000313AB1B8B1703170C087F3903194A2AF8
:100410000313AB0003170D080313AC0003170F08F9
:100420000313AD002B08AE00CA212C0803178D0062
:1004300003132D0803178F0003130B08AE008B1353
:10044000831603178C170C1400000000831203138B
:10045000AE1B8B1703170C0D0E0D7F3903194A2A9B
:100460000313AB0003170D080313AC0003170F08A9
:100470000313AD002B08AE00CA212C0803178D0012
:1004800003132D0803178F008D0A03198F0A031316
:10049000F629031703130800A101200821020318FD
:1004A000632AA2012208033C031C612A233022078D
:1004B0008400831300088600C830B0000821A20A17
:1004C000522AA10A4D2A0800A1012008210203187E
:1004D0007B2AA2012208033C031C792A2730220729
:1004E0008400831300088600C830B0000821A20AE7
:1004F0006A2AA10A652A080003081F3983006130AF
:1005000083168F0090010F0803170908C03989006E
:1005100003131F129F1200300317880083128701F4
:1005200088018901831301300313A3000230A40062
:100530000430A5000830A600A7000430A80002304F
:10054000A9000130AA006F290130AF00B000B82126
:10055000043003178D0000308F000313F62108309C
:10056000AB00FA30B0000821AB0BB12A0130AF006C
:10057000B000B821133003178D0000308F00031333
:10058000F621143003178D0000308F000313F6217D
:10059000071CAD2B0508013A0319D52A033A0319A4
:1005A000172B063A0319592B9B2B0130AF00B000D3
:1005B000B821243003178D0000308F000313F6217B
:1005C0000330A0004C220430AB00FA30B000082108
:1005D000AB0BE52A0130AF00B000B821353003176E
:1005E0008D0000308F000313F62164220130AF002C
:1005F000B000B821463003178D0000308F00031380
:10060000F6210430AB00FA30B0000821AB0B032B0D
:10061000573003178D0000308F000313F621583038
:1006200003178D0000308F000313F621AD2B01302E
:10063000AF00B000B821683003178D0000308F0084
:100640000313F6210630A0004C220430AB00FA3030
:10065000B0000821AB0B272B0130AF00B000B82150
:100660007A3003178D0000308F000313F6216422C7
:100670000130AF00B000B8218C3003178D0000307E
:100680008F000313F6210430AB00FA30B0000821CC
:10069000AB0B452B9E3003178D0000308F000313EA
:1006A000F6219F3003178D0000308F000313F621D1
:1006B000AD2B0130AF00B000B821AF3003178D0073
:1006C00000308F000313F6210330A00064220430B1
:1006D000AB00FA30B0000821AB0B692B0130AF0042
:1006E000B000B821C13003178D0000308F00031314
:1006F000F6214C220130AF00B000B821D3300317EF
:100700008D0000308F000313F6210430AB00FA3067
:10071000B0000821AB0B872BE53003178D000030AC
:100720008F000313F621E63003178D0000308F0091
:100730000313F621AD2BF63003178D0000308F0028
:100740000313F6210130AF00B000B821F7300317D2
:0E0750008D0000308F000313F621C82A6300CD
:04400E00F42FFF3F4D
:00000001FF
;PIC16F887
;CRC=4C73  CREATED="03-dic.-17 01:46"
