:1000000000308A0019280000223084008313000881
:10001000031918280130F800F701F70B0D28F80B29
:100020000C284A30F700F70B13281628800B0A28F3
:10003000080003081F39830083161F149F141F151F
:100040009F1107309C0083134930850000308600E3
:1000500005148312051C89288316061083120614C2
:1000600083168610831286108316061183120615D6
:1000700083168611831286110230A100FA30A20085
:100080000420A10B3E288316061083120614831643
:1000900086108312861083160611831206118316AA
:1000A0008611831286150230A100FA30A2000420C6
:1000B000A10B55288316061083120610831686108E
:1000C0008312861483160611831206118316861175
:1000D000831286150230A100FA30A2000420A10B81
:1000E0006C2883160610831206108316861083125E
:1000F0008614831606118312061583168611831241
:1001000086110230A100FA30A2000420A10B83283E
:100110009928831606108312061083168610831200
:100120008610831606118312061183168611831218
:080130008611831628286300E4
:02400E007A3FF7
:00000001FF
;PIC16F877A
;CRC=CA1B  CREATED="18-feb-15 15:36"
