:1000000000308A00FE280000FF00030E8301A100DB
:100010000A08A0008A010408A2007708A300780853
:10002000A4007908A5007A08A600831383120B1E8A
:100030001B288B182C28220884002308F70024088A
:10004000F8002508F9002608FA0020088A00210E89
:100050008300FF0E7F0E09008A110A1244282930FE
:10006000840083130008031943280130F800F701C6
:10007000F70B3828F80B37284A30F700F70B3E28E3
:100080004128800B35280800061C7F280130880095
:10009000C33087000130A9002F2002308800BD3016
:1000A00087000130A9002F200430880056308700D7
:1000B0000130A9002F20083088007A3087000130F5
:1000C000A9002F20103088007A3087000130A90065
:1000D0002F2020308800563087000130A9002F20C3
:1000E00040308800BD3087000130A9002F208030CB
:1000F0008800C33087000130A9002F2044288B10CE
:100100008A110A121B2801308316860000308700EE
:100110008800C03083128B048316011783120B16DC
:100120008A110A12132901308800C3308700A70101
:100130008B1BA7178B130130A9002F20A71B8B1730
:1001400002308800BD308700A7018B1BA7178B13D7
:100150000130A9002F20A71B8B17043088005A30CC
:100160008700A7018B1BA7178B130130A9002F2035
:10017000A71B8B170830880076308700A7018B1BE0
:10018000A7178B130130A9002F20A71B8B17103046
:10019000880076308700A7018B1BA7178B130130CF
:1001A000A9002F20A71B8B17203088005A3087000A
:1001B000A7018B1BA7178B130130A9002F20A71BAA
:1001C0008B1740308800BD308700A7018B1BA71715
:1001D0008B130130A9002F20A71B8B1780308800BC
:1001E000C3308700A7018B1BA7178B130130A90011
:1001F0002F20A71B8B178A110A12142903081F39F5
:100200008300831603170908C039890003131F12DE
:100210009F1200300317880083128701880189012B
:0C02200083130313832893281329630021
:04400E00E12FFF3F60
:00000001FF
;PIC16F887
;CRC=7447  CREATED="09-nov.-17 00:40"
