:1000000001308A009D290000D432733A2026432211
:10001000A018363C32004D3943347537E335F5329C
:10002000E51021000C000C00C3376E3AE5373A00AA
:10003000263084008313000803192C280130F800AF
:10004000F701F70B2128F80B20284A30F700F70BAF
:1000500027282A28800B1E2808002C0EF039F700CC
:100060000F300805770488000000081437280810AE
:1000700008000808F700080E0F39F800080083167A
:10008000081088100811831288100F308316080595
:10009000F038880083120815000008140000392089
:1000A0007808AC0008100000081400003920780817
:1000B000AB0008100F3083160805880083122C0E41
:1000C000F700F030F70577082B04F8007808AB004C
:1000D000AB1B4528291C881029188814000008111A
:1000E000000008102A0EAB000F30AB052B08AC0047
:1000F0002D202A080F39AB00AC002D200800283035
:10010000A2000C30A3000130A4000630A5000810A6
:10011000881008110F308316080588000810881011
:1001200008110F308312A60018200130A100210809
:10013000033C031CA3280330AC002D200530A6008F
:100140001820A10A97280230AC002D200530A60007
:100150001820A1012108033C031CBA2822302107E2
:10016000840083130008A600A9012608AA003F20E6
:10017000A10AAA288A110A12B929260BC028C32865
:100180004030A700C428A70101302502A70727088F
:100190008038A800A9012808AA003F2008002408E8
:1001A000073A0319DD280B3A0319E228063A031926
:1001B000EA28023A0319F028F5280130A500A60024
:1001C000BD20FA28A9010130AA003F200230A60074
:1001D0001820FA280130A5000230A600BD20FA2818
:1001E000A9011030AA003F20FA280130A9002408F4
:1001F000AA003F2008000B08A1008B1383160317E9
:100200008C170C140000000083120313A11B8B1722
:1002100003170C087F3903194F290313A100031793
:100220000D080313A20003170F080313A3002108EE
:10023000A400CF20220803178D00031323080317FF
:100240008F0003130B08A4008B13831603178C175E
:100250000C140000000083120313A41B8B17031758
:100260000C0D0E0D7F3903194F290313A10003173D
:100270000D080313A20003170F080313A30021089E
:10028000A400CF20220803178D00031323080317AF
:100290008F008D0A03198F0A0313FB28031703131A
:1002A00008002408F8012302031859292308F7003D
:1002B0006529F7010830A500A30DF70D2408770282
:1002C0000318F700F80DA50B5C2908007808210831
:1002D000A3006430A40051217708A10078083030D1
:1002E000031D7929A21C8029A2198029221A2030F5
:1002F0007C29A21122122214F8077808A400CF202A
:100300002108A3000A30A40051217708A100780831
:100310003030031D9129A2199529221C9529221AF2
:100320002030F8077808A400CF203030A10721083A
:10033000A400CF208A110A12FF2903081F39830065
:10034000613083168F0090010F088312A00183167D
:1003500003170908C039890003131F129F120030C8
:10036000031788008312870188018901831303130F
:100370007F280130A500A600BD20043003178D00A2
:1003800000308F000313FB200130A5000230A600CF
:10039000BD200B3003178D0000308F000313FB20AE
:1003A0000430A100FA30A6001820A10BD229123087
:1003B00003178D0000308F000313FB20A00A2008D4
:1003C000643C031CA001133003178D0000308F0024
:1003D0000313FB200130A500A600BD201430031735
:1003E0008D0000308F000313FB200130A500023088
:1003F000A600BD202008A1001B30A20066292030E5
:10040000A400CF200230A100FA30A6001820A10BD2
:06041000042ADE2963004E
:04400E00F42FFF3F4D
:00000001FF
;PIC16F887
;CRC=9E97  CREATED="25-nov.-17 22:53"
