:020000001628C0
:0E0006008312031321088A00200882000800DC
:1000140003208A110A128000840AA00A0319A10A83
:08002400F003031D0A28080087
:10002C000730831603139C0006309F0086010F30A7
:10003C0083128600013086000630FB001330FC0072
:10004C00AD30FD00FD0B2828FC0B2828FB0B2828C5
:10005C0000000000043086000630FB001330FC006A
:10006C00AD30FD00FD0B3828FC0B3828FB0B382875
:10007C0000000000023086000630FB001330FC004C
:10008C00AD30FD00FD0B4828FC0B4828FB0B482825
:10009C0000000000083086000630FB001330FC0026
:1000AC00AD30FD00FD0B5828FC0B5828FB0B5828D5
:0800BC0000000000202861286B
:02400E004A2F37
:00000001FF
